:020000022000DC
:1060000000000120396202009162020093620200E6
:10601000956202009762020099620200000000008F
:106020000000000000000000000000009B62020071
:106030009D620200000000009F620200A162020057
:10604000659B0200A7620200A59F0200E1A9020071
:10605000AD620200AF620200219E0200B362020044
:10606000B5620200B7620200B9620200BB620200C0
:10607000BD620200BF620200C1620200C362020090
:10608000C562020035730200C9620200CB620200E1
:10609000D17302009DFB020015FE0200D3620200D4
:1060A000D5620200D7620200D9620200DB62020000
:1060B000DD620200DF620200A3620200A36202004E
:1060C000E1620200E3620200E5620200E7620200B0
:0C60D000E9620200EB620200ED620200D7
:1060DC00354936480A1A02D0072291438D46344975
:1060EC0034480A1A06D00722914381F30988022208
:1060FC0082F3148830483149314A00F044F8314871
:10610C003149324A00F03FF831483249324A00F006
:10611C003AF832483249334A00F035F832483349BC
:10612C00334A00F030F833483349344A00F02BF846
:10613C0033483449344A00F026F8344834490022B4
:10614C0000F02CF833483449002200F027F833488B
:10615C003349091A082902DB002202604160314AE6
:10616C0090471F481F49884205D00268043003B489
:10617C00904703BCF7E700208646EC460020002140
:10618C00294A9047FEE7884207D0521A05D0037877
:10619C0001300B700131013AF9D17047884202D0BD
:1061AC0002700130FAE770470000012000E0002087
:1061BC000000012000000120501A0300F02B0020E9
:1061CC00702C0020F0620200F06202003C0403001C
:1061DC00501A0300F02B0020F02B0020BC0503000C
:1061EC00BC050300BC050300BC050300BC05030093
:1061FC00BC050300BC050300BC050300501A0300DA
:10620C00D01A0300702C0020702C0020702C002061
:10621C00953F0020983F0020983F0020983F002099
:10622C00985F00205D62020089B702000F484FF0B2
:10623C000701884385460E4880470E48016841F4A3
:10624C0070010160BFF34F8FBFF36F8FFFF740BF3B
:10625C0009480A490A4A884207D0521A05D00378DD
:10626C0001300B700131013AF9D170470000012067
:10627C006995020088ED00E064050300982B00206E
:10628C00F02B0020FEE7FEE7FEE7FEE7FEE7FEE769
:10629C00FEE7FEE7FEE7FEE7FEE7FEE7FEE7FEE7CA
:1062AC00FEE7FEE7FEE7FEE7FEE7FEE7FEE7FEE7BA
:1062BC00FEE7FEE7FEE7FEE7FEE7FEE7FEE7FEE7AA
:1062CC00FEE7FEE7FEE7FEE7FEE7FEE7FEE7FEE79A
:1062DC00FEE7FEE7FEE7FEE7FEE7FEE7FEE7FEE78A
:0462EC00FEE700BF0A
:1062F0007047000007B5044B0093044A402300F0A8
:1063000032F803B05DF804FB11630200712C002029
:106310002DE9F84389461446B2B10F4B0F4E0325C1
:10632000002743F00108224609EB0701002006F090
:1063300077F80744241A48B933782BB14FF47A40E0
:10634000C047013D02D13570BDE8F88301233370A9
:10635000002CE8D1F8E700BFC0050300702C002036
:10636000704706F091B8F0B595B01C461646084641
:106370000D4602F0DEFF1A9B0D93CDE90864002460
:106380002346082205A928460A948DF82C400C942F
:1063900003F00BF8079B0293069B03939DF81430C0
:1063A0008DF8114003F00302012A1DD1BDF81440FD
:1063B000059EC3F3C203C4F383148DF81030A2000A
:1063C00008230EA9284602F0F0FFC6F3952608AB75
:1063D0000093224602AB0EA9304600F0F5FB28469A
:1063E00002F0ABFF15B0F0BD022AF8D1BDF816409F
:1063F000C3F3C203A4098DF810300827082C2646E1
:1064000028BF08263B4632460EA9284602F0CDFF9B
:10641000A41B08AB02AA31460EA8374400F038FC92
:10642000002CEBD1DBE7704707B5044B0093044A1F
:106430004023FFF798FF03B05DF804FB856402007A
:10644000B22C002030B50C4D0FCD89B06C460FC476
:1064500095E80F0084E80F000623002269460748EC
:10646000009303F00BFB08B100F09CFD044B0022ED
:106470001A7009B030BD00BFD4050300F02B002016
:10648000B12C002038B50D4B0D4D002018700D4873
:1064900004782D5DD2B21C4665B1043004F0BCF91D
:1064A00008B100F07FFD084B1A7812B12378002B59
:1064B000FBD038BD0C3003F0A9FFF1E7F22C00202F
:1064C0006C350020F02B0020B12C002008B50848C6
:1064D000084A0378D35C33B1043004F039F9BDE8DD
:1064E0000840FFF7AFBF0C3003F02CFFF7E700BF09
:1064F000F02B00206C350020FFF7A4BF38B5094C05
:10650000FFF72FFF01250421204600F0CDFA657228
:10651000054CFFF7F1FF0421204600F0C5FA657233
:1065200038BD00BF042C0020102C0020037813F08D
:10653000030F03F0040202D012B910467047B2B143
:1065400003F00303012B03D0022B09D00120704775
:106550000A6800880232C0F3831002440A60F5E73B
:106560000B684288023303EB92130B60EEE70B6873
:106570004288013303EB92130288F4E72DE9F04FD0
:1065800087B000230446851C0DF107000F46904696
:106590008DF8073001F00EF9454806683E60D0E9F5
:1065A0000132134401339B1B824600F21C4600F566
:1065B000836900F21447AB421BD30022B8F1000FED
:1065C00070D0052363F3070264F38912DAF8001030
:1065D000DAF808309DF807000B4003330D444AF801
:1065E0002320CAF8005001F009F9012007B0BDE8E6
:1065F000F08F0121304602F068F9484602F07EF93A
:10660000384602F07BF9DAF80400DAF808B00290B4
:1066100000EA0B0003300AEB800002A9FFF786FFB7
:10662000029B50BB0BEA03020AEB820203F1020C4D
:10663000D2680392013303EA0B0B0AEB8B0B02F0D7
:106640000302012ACDF808C0DBF80C1022D0022A80
:1066500016D08346384602F054F910B1029BCAF8AE
:1066600004305946304602F030F9DAE90123134488
:10667000DAF8002001339B1A9DE70BEA0300C9E713
:10668000BDF80E309B0903334FEA114B0CEB93031B
:106690000293DFE7BDF80C30C3F383134FEA114BCD
:1066A0006344F5E7062363F3070264F39F528DE723
:1066B000C42D002008B50F4B0F48FF229A6000221E
:1066C000C3F81824C3E90022C3F81424012283F874
:1066D000202402F0E7FD38B9084A094B09499B1A02
:1066E000DB0802469A4200D108BD21F8222001327F
:1066F000F8E700BFC42D0020240503009C0403001C
:1067000024050300982B002030B50A4C71B10A4AC9
:106710000A49121BD20800239A4201D1002030BD41
:1067200031F82350854202D00133F5E7034654F88F
:106730003300F4E79C040300240503009A2B002097
:10674000094B013903EBC000032909D8DFE801F048
:106750000A020406042070470079704740797047A8
:1067600000207047022070479C040300034BD3E9CC
:106770000030C31A58425841704700BFC42D002052
:106780002DE9F04786B0FFF7F1FF0646002840F0FC
:10679000F3807A4DC5F81804BFF34F8F6868AC6872
:1067A00002902040033005EB800002A9FFF7BEFEF7
:1067B000029B074600285FD104EA0302991C0133BB
:1067C00005EB8202234005EB8303D268DB68049368
:1067D00002F00303022B0392029162D1BDF80E3046
:1067E00067484FEA9319B9F1500FCA4628BF4FF0D6
:1067F000500A6AF38F130AF10801ADF80E3002F067
:1068000069FD8046002800F0A58002F092FD03A9F2
:106810003B460822404602F09FFD029924EA010609
:106820000136B600B24535D95FFA8AFA7EB3F6B2C0
:10683000AAEB060A214003315FFA8AF4B246514EB0
:1068400005EB810108235246404602F085FD36B132
:106850000AF1080322463146404602F07DFD029BC4
:1068600009F1030903EB99030293D5F81834002BBF
:106870004AD1D5F8104458E02A689A4204D86A6090
:10688000304606B0BDE8F08704EA03008AE73D49D8
:106890003446D7E7214003310823524605EB8101F6
:1068A000DAE7012B56D1BDF80C303548C3F383111C
:1068B000062928BF062161F3891302318900ADF84A
:1068C0000C3002F007FD8046002843D002F031FD75
:1068D0003B46082203A9404602F03EFDBDF80C20CD
:1068E000C2F38312BB00974203F10803BDD20299A1
:1068F0004A1C21400331029205EB810104224046EB
:1069000002F02AFD0137E9E7404602F016FDFFF7E5
:106910002DFF80F00100C6B2B2E7637A23B123688D
:1069200041461B68204698476468002CF5D14046D4
:1069300002F003FD0DF107008DF8074000F03AFF6B
:10694000D5F818340BB9029B6B609DF8070000F076
:1069500055FFDCE7D5F8104444B90B4B0B491888B8
:10696000000440F0020000F06BF8D0E723682046F6
:106970009B6898476468EFE7002681E7C42D0020F4
:1069800024050300D02D0020B02B002000060300BA
:106990002DE9F74F284C80460F46924601A9012267
:1069A00018469B46D4F80890FFF7E8FD80B3019D98
:1069B0000026A91C5E4506EB010233D100211F48C9
:1069C00001F042FF80F310006A1C02EA090204EBA6
:1069D0008202000405EA0903033340EA1840D0604C
:1069E00014F8232068F3C50204F8232034F8232088
:1069F00066F3891224F8232054F8232067F39F229A
:106A000044F8232002F0F80242F0010204F82320A7
:106A100094F820341BB1FFF7B3FE0028FBD103B07C
:106A2000BDE8F08F09EA020204EB82025AF8263030
:106A3000D3600136BEE700BFC42D0020E031002046
:106A400000231A46FFF7A4BF07B50123019201AA4C
:106A5000FFF79EFF03B05DF804FB07B5CDE9002307
:106A600002236A46FFF794FF03B05DF804FB1FB5ED
:106A7000CDE90123069B039301AA0323FFF788FFB7
:106A800005B05DF804FB7FB5CDE90123089B0393B6
:106A9000099B04930A9B059301AA0523FFF778FF3E
:106AA00007B05DF804FB00000F4A30B5D2F810447F
:106AB0000023214641B90372D2F810444CB9C2F800
:106AC00010044160184630BD0D7A9D4205D04968DA
:106AD000F0E7626842606060F4E701330A2BE8D1B6
:106AE0004FF0FF33EEE700BFC42D0020084A38B551
:106AF0000123D2F8104482F820341D4604B938BD71
:106B00002368657220465B6898476468F6E700BFB3
:106B1000C42D0020037A052B10B50C460FD0437A04
:106B200023B1084A0849204601F04EFF0749204694
:106B300001F04AFF2046BDE8104001F03ABF002AAC
:106B4000F8D0F3E75B06030060060300F7100300CC
:106B5000C38873B504460D4633B1144A00921449F4
:106B6000144A284601F030FF217A05291CD0637AA7
:106B70004BB1A088FFF7E4FD0F4B104953F82020DC
:106B8000284601F021FF227A0D4BA08853F822609D
:106B90000021FFF7B9FD0B4903463246284602B0F3
:106BA000BDE8704001F010BF02B070BD5B0603008D
:106BB0006B0603006306030028060300600603005B
:106BC00090060300830603002DE9F04385B01F46BD
:106BD0000C9D002306460C46904695F80C902B73AE
:106BE00029463846FFF7B4FFB8F1060F09D8DFE8A9
:106BF00008F00412181F283340003146284601F0DF
:106C0000E3FE002229463846FFF784FF85F80C9002
:106C100005B0BDE8F08322683146284601F0D4FE75
:106C2000EFE7D4E900233146284601F0CDFEE8E73E
:106C3000A36800933146D4E90023284601F0C4FE3E
:106C4000DFE7E3680193A36800933146D4E90023AA
:106C5000284601F0B9FED4E723690293E368019363
:106C6000A36800933146D4E90023284601F0ACFE26
:106C7000C7E76369039323690293E3680193A368F9
:106C800000933146D4E90023284601F09DFEB8E781
:106C900008292DE9F84F80460E4617461C4636D87F
:106CA000002593F80C901D7319461046FFF750FF0E
:106CB000DFF87CA0DFF87CB0AE422AD918F80520B6
:106CC0005946204601F080FE0135082DF4D11649C1
:106CD000DFF864B0204601F077FE0025AE421DD9F2
:106CE00018F805A0504609F0BBFA002814BF524618
:106CF0002E225946204601F067FE0135082DEDD1C0
:106D0000012221463846FFF705FF84F80C90BDE8C4
:106D1000F88F5146204601F057FED5E7034920463B
:106D200001F052FEE9E700BF5606030054060300D7
:106D3000520603004C060300580603002DE9F04FED
:106D4000394E87B04FF00009384B1B785FFA89F550
:106D5000AB4202D807B0BDE8F08F354BD3F800A0A6
:106D60001AF835000124D6E9001EA0F12002C0F176
:106D7000200304FA02F224FA03F3134304FA00FC9A
:106D8000009301EA0C030293009B0EEA03030393B2
:106D9000DDE9022313430AEBC50B41D0009B21EA36
:106DA0000C012EEA0303C6E9001303F02FF81AF8CA
:106DB00035502049A5F12002C5F1200304FA02F262
:106DC00024FA03F31343D1E900C2AC40134004EAB0
:106DD0000C0105930024C3B2CDE90034009A04915C
:106DE000C5F12003A5F1200122FA03F302FA01F80C
:106DF00048EA03081346AB401F46DDE90434444526
:106E000008BFBB420CD1DBF804304BB19BF801103A
:106E10004A1E51425141081A414241412846984771
:106E200009F1010990E700BF18320020E831002085
:106E300020320020103200202DE9F0418046204809
:106E400000F0A8FCD0BB0125A8F12004C8F1200364
:106E500025FA03F305FA04F41C431A4BD3E9001294
:106E600005FA08F501EA050602EA040756EA0700F2
:106E70001E461DD1404602F0C9FF134BD3E9001254
:106E800088B129432243C3E90012D6E900231C43F9
:106E90000E4B0B4819681543C6E900540022BDE8A3
:106EA000F04100F031BC21EA050122EA0402EAE7E0
:106EB00021EA050522EA0404C3E90054BDE8F08193
:106EC000F03100201832002010320020EC31002078
:106ED000042A2DE9F34105460C4616463AD902F03C
:106EE000D1FED8B11C4B1D491D601D4BDFF88480BD
:106EF0001C701C4B00221E600023C1E900231A49AC
:106F0000C1E90023013CE4B200260327FF2C0CD189
:106F1000164A1748002100F0E5FB03E002F078FE76
:106F20000028DFD002B0BDE8F08123B205EBC30238
:106F300001A992788DF8052015F833008DF80660C8
:106F400042468DF8047002F0A7FE013CE4B200282E
:106F5000DCD0E7E70720E5E72032002010320020F0
:106F6000E8310020EC310020183200203D6D020095
:106F7000F8060300396E020070B5084D084E002473
:106F80002B789C4201D3002070BD3368012113F897
:106F9000340002F0F5FE0134F2E700BFE8310020D2
:106FA000203200201FB50021039001AA44F2010005
:106FB000CDE9011100F030F805B05DF804FB0000E8
:106FC00082B001238DF807309DF80730114B18600F
:106FD000596044F2010188429A6012D044F20201E1
:106FE000884206D1DA60DA6812889A61DA685268F3
:106FF000DA6172B69DF80730002BFBD162B602B0A1
:1070000070471A611A6992685A611A6912689A611E
:107010001A69ECE7243200202DE9F043064685B0DA
:107020000F46154672B6FFF761FDFFF7A9FB002872
:10703000FBD1DFF8B480B8F8004041F2010324042A
:107040009E4244F0010428D007D8012E14D03A46BD
:107050001E492046FFF7F8FC12E044F201039E426D
:107060001DD044F202039E42F1D12B886A68184970
:107070002046FFF7F2FC03E016492046FFF7E0FC4C
:10708000154B1B68DB0700D500BE2A463946304643
:1070900005B0BDE8F043FFF793BF1049EDE7D5F821
:1070A0000890484602F01CFA2B68029701936B681F
:1070B00000930B4903464A462046FFF7E4FCB8F824
:1070C00000000849000440F00100D7E78F070300E3
:1070D0003B070300FC060300F0ED00E01907030086
:1070E000550703007B070300B02B002030B54C1C74
:1070F000E40012F00303A4B20ED1084D2A6022442A
:10710000074C2260074A1370074A1370074A108021
:10711000074A1846118030BD0720FCE74C3200209A
:1071200048320020443200205432002050320020E7
:10713000523200202DE9F3472B4D2B888B42064617
:107140000C4617464CD34FF000080DF107008DF8A0
:10715000078000F02FFB254B254A18781178CBB219
:10716000244909888B4238BF0133C0B238BF5FFA67
:1071700083F840452ED092F800801378DBB2994214
:1071800086BF0133DBB2002313709DF8070000F0C7
:1071900035FB4FF6FF73984524D0DFF860A0DAF88E
:1071A00000304FEAC80903EB090243F83870A6B172
:1071B0009CB1114B28881B68224608FB00303146E1
:1071C00009F08EF8DAF800304B4400209C8002B0C1
:1071D000BDE8F0874FF6FF78D7E700209080F6E70C
:1071E0000920F4E70420F2E7503200205432002056
:1071F0004432002052320020483200204C3200201D
:10720000F8B5124C124D264622782B789A4200D1BE
:10721000F8BD23780F48104A078812680F48DBB280
:1072200019B202EBC10C006852F83120BCF804100E
:1072300003FB070090470A4A23781288DBB29A4280
:1072400086BF0133DBB200233370DDE75432002008
:1072500044320020503200204C32002048320020BE
:1072600052320020094A537891780133DBB29942B7
:1072700008BF0023117899421FBF0370507818236C
:1072800003FB002014BF0430002070475832002058
:1072900073B5054600240DF107000E468DF8074032
:1072A00000F088FA0DF10600FFF7DCFF90B10670E0
:1072B000094B9DF8062045605A709DF8070000F0C4
:1072C0009DFA24B9054B4FF48012C3F800212046E3
:1072D00002B070BD0424F0E75832002000E100E065
:1072E000024B4FF43C6043F001031847B007030022
:1072F00038B50C4B0C4C4FF40032C3F880200125FC
:107300004FF48033C4F84833C4F808336560FFF79E
:10731000E7FF064BA56000241C60FFF7E1FF044B6C
:107320001C7038BD00E100E0001001407433002003
:1073300065330020F8B51F4B1F491B680025C1F8B5
:107340004051C1F84451C1F84851C1F84C51C1F8FD
:107350000051C1F804514BB3D1F8044517490968ED
:10736000641A24F07F442F461A68A24209D8A41A4E
:1073700015441A7CDE691AB11F74D3E905209047C1
:10738000AEB90F4A0F4B11781B788B4205D10133F0
:10739000DBB2022B08BF0023137012780A4B43F8AC
:1073A00022500A4B4FF48012C3F80021F8BD334637
:1073B000DAE700BF7833002000100140743300206A
:1073C00071330020703300206833002000E100E0BA
:1073D0002DE9F04FA04AA14913780978A04D9942B0
:1073E00085B03CD00133DBB2022B08BF0023137001
:1073F0009C4912789C4B0F6853F822003B1823F0ED
:107400007F4300220B602B6816461446944613B93E
:1074100042B12B6006E0196881420ED902B12B609F
:10742000091A19604FF001082B68DFF844A2019394
:107430000027BEB9DFF840B266E0401A0C44D968B4
:10744000C3F800C0D3F81CE031B13A1922F07F42F2
:10745000C3E90121DE611E4601227346D7E70026FB
:10746000B046E1E73446F6697E4A63681268DFF8A1
:107470000CC2A068991A21F07F41614500F2A580F5
:1074800001442160012222742A680023C4E90133E7
:10749000E361002A40F0A2802C60CAE75A1C9BF8E6
:1074A0000210D2B291428BF8002004BF00228BF868
:1074B0000020182202FB03B31A799C68022A1CD010
:1074C000032A12D0012A1FD1207CE8B9D3E9031284
:1074D000A2605A69E2609A69644BA2611B78002B32
:1074E0000CBF0B4603466360BEE700222B681146C3
:1074F000002B66D142B12B6006E029680A46894616
:10750000002A59D1002323749BF800309BF80120F6
:107510009A42C3D12B682FB9019A9A4202D1B8F18D
:10752000000F43D0002B73D0D3F800A0504D4D4B2B
:10753000D5F804751C68DFF848813E1B98F80030C8
:1075400026F07F4603369BB94FF48033C5F84433A9
:10755000C5F80433474B4FF400324FF00109C3F82C
:1075600080211A60C5F80090FFF7BAFE88F80090F5
:10757000B2452CBF5444A41924F07F44C5F84045BB
:10758000D5F80435DB1B23F07F43E41B033324F0E1
:107590007F44A3420AD9D5F80435C5F84035FFF732
:1075A0009FFE344B4FF40032C3F800212F4B0022D2
:1075B0001A7005B0BDE8F08F94422CD09146D26984
:1075C0009EE719740122DB6992E7D31A23F07F4307
:1075D000834234BFC31A0023236053E72168136832
:1075E000994213D8591A1160E26155E7091AD8690E
:1075F0001A4638B1034618688842F7D3401A186013
:10760000184613462160E061DC6112E71346F2E799
:10761000FFF76EFECAE74C4511D1CB692B6073B9F9
:10762000DFF840E00120CDE90212CAF80800CEF8E8
:1076300000300E4B1870FFF753FEDDE9021213689D
:10764000D269C9F81C2012B11068034413602B687A
:10765000994218BF012755E770330020713300208D
:107660007833002074330020683300206433002016
:107670000010014000E100E058320020FEFF7F00D2
:107680006533002008B5FFF733FE104B00200B22B6
:1076900018809A700E4B18600E4B18700E4B1870B5
:1076A0000E4B4FF48012E021C3F8802183F81413AD
:1076B0001A6002F18042A2F56F22C2F8080583F831
:1076C0001113074BD2F804251A6008BD5832002068
:1076D00078330020703300207133002000E100E097
:1076E00074330020074B9B784BB132B128B103684B
:1076F000187C20B959745A617047072070470820D8
:10770000704700BF583200202DE9F7431E4FBB7869
:1077100005460E469046A3B398B304292FD9436972
:107720007BB3437C0024012B0DF107000CBF89467D
:10773000A1468DF8074000F03DF80DF10600FFF777
:1077400091FDD0B101230370104B4560D3F804358F
:10775000C0E90498C0E902369DF806307B709DF8B8
:10776000070000F04BF824B9094B4FF48012C3F81E
:107770000021204603B0BDE8F0830424EFE707248E
:10778000F7E70824F5E700BF583200200010014059
:1077900000E100E0064A92783AB130B1426922B184
:1077A000002202740221FFF773BD0820704700BF5A
:1077B0005832002070B5EFF3108672B60C4A946808
:1077C00001239CB993600B4B0B4DD3F880102940DB
:1077D0001160C3F88050D3F8841051604FF0FF322D
:1077E000C3F88420047006B962B670BD0370FAE76E
:1077F0007C33002000E100E0FC06FFBD084B9A68E6
:1078000010B55AB150B9EFF3108172B6054A1C6831
:1078100014605C685460986001B962B610BD00BF26
:107820007C33002000E100E070B5064D06460024E0
:1078300055F8043B0BB1304698470134042CF7D17E
:1078400070BD00BF94330020033080B240F2FD339E
:10785000984230B51FD8124B1A783AB91C895D8905
:107860002C440444A4B2B4F5806F0AD31A7DA2B9A3
:107870009A8BDC8B2244024492B2B2F5806F0CD218
:1078800001220A801446142202FB04335A89104450
:107890005881002030BD0920FCE70720FAE700BF2F
:1078A000C83300200B4A0C4B5188142000FB0131D7
:1078B000CB6833B90420496810700122074801F0F1
:1078C000E7BA05230649137002238B8001220023A7
:1078D0000968F3E7AC330020C8330020DC2B00201C
:1078E0008034002007B5002305490093054A096844
:1078F0000548082301F048FA03B05DF804FB00BF17
:1079000080340020C4070300DC2B002007B50023CF
:10791000009301460823034A034801F035FA03B0F7
:107920005DF804FBBC070300DC2B002013B500232B
:107930000C46009301460423074A084801F024FA44
:1079400038B9074B142202FB04340123237402B01C
:1079500010BD0E20FBE700BFB8070300DC2B0020A2
:10796000C833002037B50A480A4B42689C8819681A
:1079700053880325033305709BB2002000909B00C1
:1079800001EB8401044801F0FFF903B030BD00BFF2
:10799000AC33002080340020DC2B002010B50146E1
:1079A000044800F085FE1C220446002108F0C1FCBA
:1079B000204610BD1C2C002068B10268084B9A427A
:1079C00009D14068074B984207D0013398420CBF59
:1079D000012003207047032070470020704700BF3C
:1079E000DEC0ADDEFE011EF14388033300EB8303EE
:1079F000994209D382884FF6FF739A4206D00088D5
:107A0000B0FA80F0400970470220704701207047AB
:107A10002DE9F8430223DFF860800B800D461746FE
:107A200000F5805600F108044FF00109B4420FD26E
:107A3000236801330CD031462046FFF7D5FF48B10B
:107A40000FB187F8009002280BD14FF480632B8090
:107A5000BDE8F883A368D8F80020934201D9C8F89C
:107A600000302B886288033313442B8063880333F0
:107A700004EB8304DAE700BFC0330020154A142367
:107A800003FB002070B50B6844680D4604F5805672
:107A9000ABB15C88033403EB8404B4420DD2236899
:107AA00001330AD031462046FFF79EFF01280BD054
:107AB00010F0FF0F05D00228EFD1002003E00834BA
:107AC000EBE72C60012070BD6388033304EB830473
:107AD000E3E700BFC8330020436873B504460D4692
:107AE0006BB3244AD1688B4229D31269934226D8BA
:107AF00013F0030223D120490089098988421ED14D
:107B00002068996888421AD11C494868834203D981
:107B100000F5805083420ED38A6993420DD902F555
:107B20008052934209D201232B800020B0FA80F0CA
:107B3000400902B070BD1346F6E70A20F6E70023BD
:107B40002B801E46019601A92888FFF797FF30B9C0
:107B50002B8801339BB2012B2B80F3D9E9E7019BE2
:107B6000226899689142EED16360034B1B8923819F
:107B7000DFE700BFDC2B0020AC330020C83300203F
:107B80002DE9F8431C461C4B1B7806460F4615464C
:107B90006BB372B36CB3DFF868804FF01409A3883D
:107BA000012B01D90A2020E009FB03F318F8033068
:107BB0002BB92146A088FFF761FF20B92060A38878
:107BC0000133A380EBE723681EB199883288914284
:107BD000EFD11FB119883A889142EAD19A68C5E974
:107BE0000023064B1B892B810020BDE8F88302206F
:107BF000FBE70520F9E700BFA4330020AC330020E9
:107C0000C833002008B5074B191D5888FFF736FF09
:107C100018B1BDE80840FFF7A5BEBDE80840FFF772
:107C200041BE00BFAC3300202DE9F04FA04FDFF87C
:107C3000A49289B00646B8463B6823B949469D4898
:107C400000F070FD3860D8F8005029784B1E052BE5
:107C500000F2FA80DFE813F006005E005E00EE003E
:107C6000EE005C0126B1944B00225A600124ECE046
:107C70002B79032B1DD8DFE803F015022A358F4935
:107C80000B78022B084619D00B7D022B4FF0010315
:107C900016D114225343C2180020C8545068FFF76D
:107CA00035FE03E001232B71FFF71CFE002800F0D6
:107CB000BC80814B00225A600E24C6E00023E8E716
:107CC0007D4A13700023536041F61D54BDE07C498A
:107CD0007C48002302222B718A800122096801F06E
:107CE000D7F8E3E7764C00262E712068734DFFF736
:107CF0000DFE754BD4F800C05A8814235343EA187C
:107D0000EE5451682160A188C2F804C0118102229A
:107D1000A280CBE7B5F814A0AA7DDFF8A0B1AEB180
:107D2000022AEB8806D9142101FB0AB1DA1C088962
:107D300002440A81142202FB0ABAC3F57F43BAF84F
:107D40000A20FD331344AAF80A308FE7142303FBFB
:107D50000AB318895C6804EB8004062A68D8DFE857
:107D600002F0274D35431D59040041F61D54AA7DEC
:107D7000EB88022A06D9142101FB0AB1DA1C088912
:107D800002440A81142202FB0ABAC3F57F43BAF8FF
:107D90000A20FD331344AAF80A3056E04B484C49F8
:107DA00000234360AB690360FFF796FE002871D0A3
:107DB0000223AB75002300930423EA1821464148AF
:107DC00000F0E2FF002830D00E24D0E72B69002B12
:107DD00014BF03230123AB750023009305F10C02AC
:107DE000042304F10801EAE70123AB750022EB88C4
:107DF00000929B002A6904F10C01E0E703290CBF03
:107E000005230623AB7500230093042305F1080224
:107E1000E118D4E70623AB752D4B19882B4B586816
:107E2000FFF784FD04460028A1D109B0BDE8F08F1A
:107E30000F249CE7002E7FF419AF2B79012B4BD038
:107E4000E3B1022B3FF440AF0F241422002103A81A
:107E500008F06FFA41F61D539C4208BF0024D8F881
:107E6000003004941A78023A042A00F20581DFE80F
:107E700012F0E600F20015011D01240102232B710E
:107E80000DF10A01EB68039303A8CDE90466FFF73F
:107E900023FE08B90A24D8E70498BDF80A1083889D
:107EA000EB8003882B81FFF741FD044627E000BFEC
:107EB000C43300201C2C0020A4330020C833002031
:107EC00080340020DC2B0020AC33002088330020DD
:107ED0008C340020BC330020DFF8FCA103AA5346F9
:107EE0003146A81DFFF74CFE044658B9BAF80410F5
:107EF0000498FFF71BFD04460A2C3FF4E5AE002C66
:107F0000A3D192E708223146504608F012FAF3E76F
:107F1000002E7FF4ABAE6B4B1A7BAAB11E731A789E
:107F2000013A062A90D801A151F822F0D37F02002D
:107F3000F97F0200178002001D800200497E0200C6
:107F400023800200358002001A78072AE7D801A1B1
:107F500051F822F0757F02001F7F02001F7F020090
:107F60009B7F0200AF7F0200CF7F0200CF7F020025
:107F7000977F02001A89544901321A8100225A80DF
:107F80001A730A78B2FA82F252099A720A7DB2FA28
:107F900082F25209DA72012207E04C4958688A8855
:107FA0004088033202448A8002221A70B7E7464CA6
:107FB0005A884649142505FB0242086854685060F7
:107FC0008888108102228A800C600622EDE7072251
:107FD000EBE79A7A32B9DA7A8AB900221A705A80B3
:107FE0005A6071E6384900229A72CA68002AF2D1B2
:107FF000097C0029EFD05A80FFF704FE55E70022E4
:10800000DA72314A116A0029E7D192F82420002A55
:10801000E3D00122EFE7FFF7A5FC46E7FFF742FCBC
:1080200043E7294A5B88142101FB03235868FFF7C3
:108030006DFC3AE700225A60FFF754FC35E7012255
:108040008DF80C201A89ADF818209A88DB68ADF8F5
:108050001A20059310E002228DF80C201A89ADF841
:1080600018209A88ADF81A20DA689B7D05929A1F2D
:10807000534253418DF81C3003A8FFF7D5FB00266F
:1080800049461348C8F8006000F077FB0121114809
:1080900000F026FC00287FF4CFADC6E603228DF861
:1080A0000C20DA88ADF818201A89CFE70422DB8883
:1080B0008DF80C20ADF81830DEE705238DF80C3074
:1080C000DAE700BFAC330020C83300208034002042
:1080D0001C2C00207C340020903400204068FFF7E6
:1080E000A3BD000008B50121044800F0E3FB18B966
:1080F000BDE80840FFF798BD08BD00BF7C340020F4
:108100002DE9F3419846354B1B7806460D46002B6A
:108110005BD000295BD009884FF6FF73994258D095
:108120006B88002B55D06B689B0754D14AB92F89B7
:108130000DF102013846FFF787FB30B102B0BDE810
:10814000F08113885788ADF8023001A8FFF726FCAC
:10815000044658B9BDF80230214A142101FB03231B
:1081600058890338C01B58810820E7E7002383752E
:10817000BDF8023083826B68036180F800800121C2
:10818000184800F0A2FB2B882381B8F1030F6B88FD
:10819000A38004BF0423A3754FF0000508BF336814
:1081A000E06008BFA361E780658101A90E4800F087
:1081B000A9FA36B1E36833600C4B75601B89B57260
:1081C0003381FFF78FFF0020B8E70220B6E70520D4
:1081D000B4E70420B2E70320B0E700BFA4330020D7
:1081E000C8330020C03300201C2C0020AC330020FA
:1081F00008B5084B1A68042A09D01968064A42F8DB
:1082000021000121184600F060FB002008BD0C2071
:10821000FCE700BF88340020943300202DE9F04FA4
:1082200014228BB000210DEB020008F082F8744A92
:10823000137803F0FF01CDE901123BB105A8FFF768
:10824000F3FA002738460BB0BDE8F08F029B181DEB
:1082500000F051FB0028F4D14FF010234FF0805272
:108260005B6911695269674C581C08BF02FB01F336
:1082700023610022A3F540536349E360204600F0E8
:1082800055FD039407460028DCD11C238C225F494E
:108290005F48DFF88891DFF8888100F0D4F93D4627
:1082A000BA464FF0030B3C46039BDE68564430460B
:1082B0003146FFF781FB01284DD042B2002A36D06B
:1082C000032822D106F580520868013040F08A80E8
:1082D00004318A42F8D1D9F800203AB902220123A8
:1082E000C9F80060A9F8042001930CE0142262434D
:1082F000022008EB020108F80200464A4E60548052
:1083000001340881A4B245F001050AF5805ABAF596
:10831000405FC9D1BBF1010F98BF0025EDB2022D1E
:1083200003D0062D35D0002D3CD10B278AE7142130
:10833000614308EB010008F8012001F11002083147
:108340004660424441443046FFF762FB45F0020577
:108350000134A4B2D9E7019B63B11422624308EB54
:108360000201022008F802000134D9F800204A6016
:108370000881A4B200222849C9F800603046FFF7FE
:1083800047FBB9F80420022A0CBF04220822154337
:10839000BBE7029A0123137005A800235360FFF77F
:1083A00043FA4FE704A8FFF7F9FAC8B10123013DEA
:1083B00003700A2D09D8DFE805F00608060807084B
:1083C00007080F110F000023037104A9104800F0E3
:1083D00099F9FFF787FE35E70323F5E70223F3E773
:1083E00008272FE70BF1FF321FFA82FB14226243AA
:1083F00008EB02014E60032108F80210A8E700BF55
:10840000A4330020DC2B0020C8090300F033002037
:108410001C2C0020AC330020843400208034002049
:10842000C833002073B50D460446C8B1C1B10DF183
:108430000601FFF751FBA8B10B4BBDF806006668BB
:10844000142202FB003001210C3000F03EFA636878
:108450002E600C336B600123A372002002B070BD4C
:108460000520FBE70A20F9E7C833002013B50446CE
:10847000A8B10DF10601FFF72FFB90B10B4ABDF833
:108480000630142101FB0323DA6862B1A27A52B1EB
:10849000DA680020013ADA60A07202B010BD05204F
:1084A000FBE70A20F9E70620F7E700BFC833002002
:1084B0000B4B1B7837B504460D4663B168B10DF11F
:1084C00006012846FFF7C0F918B9BDF80630238029
:1084D000658003B030BD0220FBE70520F9E700BF4F
:1084E000A4330020104B1B7810B5B3B1B8B102888B
:1084F000022A16D80D494388142404FB02129C1C3E
:1085000051898C420DDAC3F57F43FD330B4453810F
:10851000002303804380184610BD0220FCE705209D
:10852000FAE70420F8E700BFA4330020C833002096
:1085300002230022FFF7E4BD12B10223FFF7E0BDE2
:108540000520704718B103230022FFF7D9BD05208D
:1085500070470000104B1B7813B50446ABB14FF6C3
:10856000FF73984213D001A8FFF718FA88B10523CA
:10857000037001230371C48001A9084800F0C2F808
:10858000FFF7B0FD002002B010BD0220FBE7042081
:10859000F9E70820F7E700BFA43300201C2C0020D7
:1085A0000E4B1B7807B5A3B101A8FFF7F7F990B1FF
:1085B0000623037001A90A4800F0A4F8094B1A78B1
:1085C0000AB101221A73FFF78DFD002003B05DF898
:1085D00004FB0220FAE70820F8E700BFA4330020DC
:1085E0001C2C0020AC33002007B5ADF80600ADF818
:1085F00004100DF1060001A9FFF7C2FA03B05DF8FF
:1086000004FB07B51346ADF806000A4600200DF13D
:108610000601FFF7B5FA03B05DF804FB07B5134692
:10862000ADF806000A460DF106000021FFF7A8FA92
:1086300003B05DF804FB20B119B103680B600020A2
:1086400070470520704710B561B1B2FBF3F403FB2E
:108650001424A4B244B9C0E9001484608281C381A7
:10866000204610BD0E20FCE70920FAE782B050E852
:10867000022FC188B2EB324F4FF0000317BF92B206
:1086800041EA014142EA014104E04268B2EB324F63
:1086900008BF012340E80212002AE8D18DF8073014
:1086A0009DF80730002B0CBF1120002002B070474E
:1086B00037B550E8013F9DB2C48925448489A5425D
:1086C00028BF2D1B0489A54202BFBFF32F8F0022B4
:1086D00007E0C5EA030540E80154002CE9D14FF05A
:1086E00001028DF803200193019B9DF803200B608C
:1086F00002F0FF0322B10B880068184403B030BDBC
:108700001846FBE70A884B889A4209D150E8012FA6
:10871000C2EA024240E80123002BF7D10120704752
:108720000020704737B550E8023F1FFAA3F5C48810
:10873000A54202BFBFF32F8F00220DE0C48925445C
:108740008489A54228BF2D1BC3EA054540E8025491
:10875000002CE8D14FF001028DF803200193019B1A
:108760009DF803200B6002F0FF0322B14B880068E4
:10877000184403B030BD1846FBE70A884B889A427C
:1087800009D150E8022FC2EA224240E80223002B1E
:10879000F7D1012070470020704701F01F024B09FC
:1087A0000121914000EB830000F063B84B0910B544
:1087B00001F01F040121A14000EB830000F04EF8FE
:1087C000E04000F0010010BD01F01F0301229A40BB
:1087D0004B0900EB8300D14300F061B84B0901F075
:1087E0001F0150F82300C84000F0010070472DE938
:1087F000F0474E1E760980460F460136002558F890
:10880000254008EB8509E44394FAA4F4B4FA84F40F
:108810004FEA451A202C06D10135AE42EFD83C462E
:108820002046BDE8F0875444A742F5D9214640468A
:10883000FFF7BCFF0028F3D0D9F80040E44394FAD6
:10884000A4F4B4FA84F4E5E750E8002F0B4640E8BE
:10885000003C9CF0000FF7D11046704750E8002F05
:1088600042EA010340E8003C9CF0000FF6D11046BC
:10887000704750E8003F43EA010240E8002C9CF0BA
:10888000000FF6D11046704750E8002F02EA0103AE
:1088900040E8003C9CF0000FF6D11046704750E8CD
:1088A000003F03EA010240E8002C9CF0000FF6D1E3
:1088B0001046704750E8002F02EB010340E8003CEF
:1088C0009CF0000FF6D11046704750E8003F03EBD4
:1088D000010240E8002C9CF0000FF6D110467047D2
:1088E00050E8003FA3EB010240E8002C9CF0000F91
:1088F000F6D1104670470121FFF7B0BF0121FFF705
:10890000B8BF0021FFF7C0BF10B590B1D0E9012377
:1089100001689B1ADBB20A60013BDBB2FF2B0268E5
:1089200002D10020107110BD11684C1C14600B7036
:10893000F2E70E20F7E737B5054600240DF10700F2
:108940008DF80740FEF736FF2A686B681168994278
:108950000ED9481E106011F8014CEB68A98A01FB82
:108960000434AB6811791B1ADBB2994238BF13711A
:108970009DF80700FEF742FF204603B030BD37B533
:10898000054600230DF107000C468DF80730FEF771
:1089900011FF2A681368591C1160E968641AA98AD2
:1089A000B4FBF1F41C709DF80700FEF727FF03B03D
:1089B00030BD826810B504462AB143690168006978
:1089C00098470023A36010BD0EB403B5039921B1ED
:1089D00004AB01AA019300F06DF802B05DF804EB5E
:1089E00003B07047826830B40468551C8560A15498
:1089F000D0E901329A4202D330BCFFF7DABF30BC73
:108A0000704700002DE9F84F9946DDE90A43174603
:108A1000824688460A460126BA420FD24E4538BFE2
:108A20004E4613F0010B01D164B900240125B9F1C0
:108A3000010F1AD909F1FF397D43F8E7B2FBF7F2CC
:108A40000136E9E79B070ED5B9F1000F0CBF3025C1
:108A50002025A642EAD2013C29465046FFF7C2FF34
:108A6000002CF6D1E1E72025F3E7B8FBF5F39F42B0
:108A7000E2D9DFF83C90B8FBF5F3504619F8031043
:108A800005FB1388FFF7AEFFB5FBF7F3BD4207D236
:108A9000BBF1000F02D00CB1A64203D3BDE8F88FA2
:108AA0001D46E8E720215046013CFFF79BFFF2E717
:108AB000DB0703002DE9F74F0546174688460029D6
:108AC00000F0318118F8011B49B92B7B002B00F015
:108AD0002A81284603B0BDE8F04FFFF76ABF252979
:108AE00040F0C080002698F800302D2B424608F157
:108AF000010823D0302B24D02B2B25D000242A2B67
:108B000002F1010123D13B681A1D1B683A601C4425
:108B10000A4613782E2B26D101324FF0000A104658
:108B200010F8011BA1F1300CBCF1090F1DD80A236C
:108B300003FB0A13A3F1300A0246F0E746F00106F0
:108B4000D1E746F00206CEE746F00406CBE711F87F
:108B5000013CA3F130000928DBD80A2202FB0434CF
:108B6000303C0A46CBE74FF0000A12F8011B01F037
:108B7000FB0068289046F8D069290ED04AD85829B9
:108B800064D006D825296DD098F80030002B99D1F3
:108B90009BE7632962D06429F6D13A68D2F8009045
:108BA000111D89EAE9723960A2EBE9724FF0010BFD
:108BB000092A5BDCD34538BFD3462CB1B9F1000F8D
:108BC00001DB710700D5013CB20702D5BAF1000FF5
:108BD00004D0F30702D4002C4ED10024B9F1000FC9
:108BE00052DAC9F100092D212846FFF7FBFE06F0F5
:108BF0000302022A05D1BAF1000F02D1002C47D19D
:108C00000024CDE9004653460A2249462846FFF78C
:108C1000F9FEB9E773294CD014D87029B4D13B6858
:108C20001A1D3A60302128461C68FFF7DBFE7821C8
:108C30002846FFF7D7FE00220823CDE9003221465F
:108C40001022E3E775292BD078299DD139680A1DB8
:108C50003A60CDE900465346102228E03B681A1DD1
:108C600019783A602846FFF7BDFE8DE70A230BF11D
:108C7000010BB2FBF3F29BE7A345AFD220212846BC
:108C8000013CFFF7AFFEA6E77007B0D52B21ABE79D
:108C9000A345B6D230212846013CFFF7A3FEADE73D
:108CA0003968CDE900460A1D3A6053460A22096830
:108CB000ACE73B681A1D3A60F107D3F8009020D466
:108CC000B9F1000F25D0484607F088FB0646B442AC
:108CD00000D9C4B909F1FF3920E028460136FFF771
:108CE00081FE19F806100029F7D1A642BFF44CAF57
:108CF000002C3FF449AF20212846013CFFF772FECB
:108D0000F3E70026EDE720212846013CFFF76AFE45
:108D1000DDE74E46DBE72846FFF764FE19F8011F42
:108D20000029F8D130E703B0BDE8F08F07B50B4656
:108D300078B9104B104A18880E2300930F4B00048B
:108D40000F4940F00100FDF792FE0E2003B05DF8E0
:108D500004FB3BB9074B0B4A18880E230093000411
:108D6000064BEDE703601B68114603B05DF804EBAA
:108D7000184700BFC82B002098080300EB0703002A
:108D80009D080300140903002DE9F34178B9354B20
:108D9000354A1888354B0E2400040094344940F0BD
:108DA0000100FDF764FE204602B0BDE8F0813AB94B
:108DB0002C4B304A18882D4B0E2400040094EDE70C
:108DC000D0F800C0BCF1000F07D1264B2A4A188802
:108DD000264B082400040094E0E73BB9214B274AC6
:108DE0001888224B092400040094D7E74768D7F875
:108DF0000480B3FBF8F708FB17373FB1194B204A43
:108E000018881A4B092400040094C7E78F0707D07D
:108E1000144B1C4A1888154B102400040094BDE71D
:108E200012F0030F07D00F4B174A18880F4B10246E
:108E300000040094B2E7C768B9420BD34C1E056921
:108E40001C44AC4206D8DCF80C40A44602B0BDE895
:108E5000F0416047034B0D4A1888044B102400046E
:108E600000949BE7C82B002098080300FD0703002F
:108E70009D0803001A0903000E090300CD08030032
:108E8000200903004A090300620903008509030061
:108E9000F7B570B9254B264A1888264B0E240004D6
:108EA0000094254940F00100FDF7E1FD204603B0A4
:108EB000F0BDD0F800C0BCF1000F07D11B4B1F4A1A
:108EC00018881C4B082400040094EAE73AB9174BB1
:108ED0001B4A1888174B092400040094E1E74768EF
:108EE000D7F800E00EF1FF370F4207D00F4B154ABD
:108EF0001888104B102400040094D2E7C768B942C8
:108F00000CD34C1E05690EFB0244AC4206D8DCF8BB
:108F10001040A44603B0BDE8F0406047034B0A4A46
:108F20001888044B102400040094BAE7C82B0020D2
:108F300098080300100803009D0803000E090300B1
:108F4000CD080300230803004908030070B508B1E9
:108F50000368ABB90C4D0D4C0026641B1423B4FB05
:108F6000F3F4B44201D1002009E02B6813B90136B3
:108F70001435F6E7DB69284698470028F7D070BD1E
:108F8000DB69BDE870401847DC2B0020F02B002087
:108F900029DF704728DF704770B503689D6886B089
:108FA00004460E466DB114220021684607F0C1F94F
:108FB000A3680593237901962BB1012B0DD0684648
:108FC000A84706B070BD01238DF8003023690293D5
:108FD000E368039363690493F1E702238DF800309B
:108FE000E3681B030293F5E70846704700207047CB
:108FF000024B187A003018BF01207047243500203A
:10900000034B187A0122B0FA80F05A744009704775
:109010002435002008B510461A4607F061F90020F3
:1090200008BD000008B514220021044807F081F9AA
:109030000348FFF71BFB002008BD00BF24350020BC
:10904000302C002010B5094C094B43602046FFF737
:1090500052FC40B906F0C4FE1C2320748C22054942
:109060000548FFF7F0FA002010BD00BF24350020AE
:10907000BC09030098340020302C002070B5244D2A
:10908000244E2B7A2C463BB923492448FFF74AFB50
:10909000306008B9686070BD0223237233681A79A2
:1090A00072B1012A24D018460321FFF775FF00236F
:1090B0002372636018491948BDE87040FFF75DBB33
:1090C000D3E90520121AB2F5805F28BF4FF4805211
:1090D000D3E903159208012A014438BF012228442C
:1090E000FFF756FF50B11128DDD101232372D2E7DB
:1090F000D3E903021044FFF74DFFF3E7237C002B75
:10910000C9D10146BDE87040022000F009B800BF97
:10911000243500203C35002038350020302C00203C
:1091200038B5831E012B45D8234C237A002B41D020
:10913000022B09D1032830D0204B1B680022E260AB
:109140001A793AB1012A22D0637C7BBBBDE8384052
:10915000FFF794BFD3E905128D1AB5F5805F94BF70
:10916000521902F580529A619142EDD102284FF0D6
:10917000000308BF19462372104B18BF0D21186851
:10918000FFF70AFF0E490F48FFF7F7FADCE71A6905
:1091900001321A615B699A42E7E7E3680133082B01
:1091A00001D8E360D0E70023E360DFE7BDE83840A3
:1091B00006F006BE38BD00BF243500203C35002037
:1091C00038350020302C002000F0FD03012B08D1A1
:1091D000044B00225A74421E504250411874FFF74B
:1091E0004DBF70472435002010B5064C201DFFF7F9
:1091F00082FB28B9637C1BB9BDE81040FFF73EBF76
:1092000010BD00BF243500202DE9F34180460D46F6
:109210000F4801A916461F46FFF74AFA0446A8B1AF
:109220001C22002107F085F82D0B0123237101A9D1
:10923000C4F80080A760E56066610548FFF762FA40
:10924000FFF7D2FF002002B0BDE8F0810420FAE76A
:10925000302C00202DE9F74381468846104801A9AB
:1092600017461E46FFF724FA0446B0B11C2200211F
:1092700007F05FF800250A9BA36001A92571C4F8D7
:109280000090C4E9037866610548FFF73BFAFFF7F1
:10929000ABFF284603B0BDE8F0830420FAE700BF27
:1092A000302C0020FFF730BBF8B546790146721E1E
:1092B0000546002393422D6803D30024A64202D81A
:1092C000F8BD0133F6E70F682846FFF758FB013475
:1092D0003946F3E72DE9F843868ACD1C0746FFF7A8
:1092E0002AFB043E35440446B5FBF6F5F0B14FF4D5
:1092F0008073EDB28380C680013D076081464FF0E8
:109300000008A84512D23846FFF715FB064648B1BB
:1093100063790133637108F10108C9F8000007603F
:109320008146EEE72046FFF7BFFF34462046BDE802
:10933000F88301210430FFF7C8BA10B501210446B3
:109340000430FFF7CDFA10F0FF0F04D12046BDE83E
:109350001040FFF7A9BF10BD2DE9F843C7880546A7
:10936000181D8846B0FBF7F4164607FB14003CB9FD
:10937000A7EB0009B14528BFB14626B9BDE8F8837F
:109380002D68013CF3E70430A6EB09064A4608EBDA
:109390000401284406F0A4FFB7424C442D68B946A6
:1093A0004FF0000028BFB146E7E72DE9F843C78832
:1093B0008846191D0546B1FBF7F4164607FB141144
:1093C0003CB9A7EB0109B14528BFB14626B9BDE8B4
:1093D000F8832D68013CF3E704312944A6EB090624
:1093E0004A4608EB040006F07BFFB7424C442D6868
:1093F000B9464FF0000128BFB146E7E741DF7047AB
:10940000064B10B500241C70054B1C60BFF35F8F2A
:109410000449054800F030F8204610BD48350020CA
:109420004C350020F80903004035002007B5002323
:109430000DF107008DF80730FEF7BCF9F1EE103A98
:1094400023F09F03E1EE103ABFF35F8F094B4022F8
:10945000C3F884219DF80700FEF7D0F906F0C0FCA0
:1094600020B1FFF7CBFF03B05DF804FB20BF40BF86
:1094700020BFF8E700E100E00B684A6843609342D0
:1094800008BF0023016008BF43607047436843B1D1
:109490000268916852680B449342436004BF002302
:1094A0004360704710B50D49A1F59472914201D8FF
:1094B00000200FE08B1ADB1003EBD3735B1002EB81
:1094C000C30452F83330834205D802D204F10802B3
:1094D000ECE7606810BD2146E8E700BF480B0300D9
:1094E00008B5FFF7DFFF024B002808BF184608BD8C
:1094F0000D0A03000C4B1B78062B10D10B4B1B687D
:109500001A070CD10A4B186800F0F003302B08D072
:1095100000F0E000A0F1400358425841704700209D
:1095200070470120704700BFE00F00F0E40F00F02B
:10953000E80F00F0094B1B78062B0CD1084B1B6879
:109540001A0708D1074B186800F0F000A0F13003AB
:109550005842584170470020704700BFE00F00F0AC
:10956000E40F00F0E80F00F008B5FFF7C3FF28B1E3
:109570007D4B7E4A1B68C3F304231360FFF7DAFFB9
:1095800010B17B4B7B4A1A60FFF7B4FF28B17A4BCE
:109590007A4A1B68C3F342331360FFF7CBFF20B155
:1095A000774AD36823F08073D360FFF7A3FF40B1FD
:1095B0004FF080430022C3F80C21C3F81021C3F8F8
:1095C0003825FFF7B7FF10B16E4B03221A60FFF783
:1095D000B1FF40B16C4B05221A6001229A6700224C
:1095E0009A603F225A60694B1B78062B50D1684B1A
:1095F0001B6819074CD1674B1B6803F0F003502B15
:1096000046D14FF08052644BD2F80414C3F82015B1
:10961000D2F80814C3F82415D2F80C14C3F828158E
:10962000D2F81014C3F82C15D2F81414C3F830155E
:10963000D2F81814C3F83415D2F81C14C3F8401526
:10964000D2F82014C3F84415D2F82414C3F84815EE
:10965000D2F82814C3F84C15D2F82C14C3F85015BE
:10966000D2F83014C3F85415D2F83414C3F8601586
:10967000D2F83814C3F86415D2F83C14C3F868154E
:10968000D2F84014C3F86C15D2F84424C3F87025FE
:10969000FFF730FF28B1414B414A1B6803F04F03ED
:1096A0001360FFF727FF48B14FF08043D3F8002441
:1096B000D20744BF6FF00102C3F80024394B1B6886
:1096C000062B08D1384B1B68062B01BF374A13689D
:1096D00043F480631360364AD2F8883043F4700351
:1096E000C2F88830BFF34F8FBFF36F8F4FF0102356
:1096F000D3F80022002A03DBD3F80432002B2FDA40
:109700002C4B0122C3F80425D3F80024002AFBD0F7
:109710004FF010221521C2F80012D3F80024002ABD
:10972000FBD04FF010231522C3F80422214B1A4618
:10973000D3F800140029FBD00021C3F80415D2F897
:109740000034002BFBD0BFF34F8F19491A4BCA6866
:1097500002F4E0621343CB60BFF34F8F00BFFDE71D
:10976000164B174A1A6008BD24030010403501400B
:1097700074C007400DF0ADBA440200103C05004033
:10978000F0ED00E0A005004010560040E00F00F0B2
:10979000E40F00F0E80F00F000C000405802001095
:1097A000E40E004030010010340100103C1700406E
:1097B00000ED00E000E001400400FA05442C002028
:1097C0000090D003054A4FF0A043105CD3F8043555
:1097D00023FA00F0C04300F001007047060F0300B9
:1097E000044B1A5C012393404FF0A042C2F80C35A1
:1097F000704700BF060F0300044B1A5C012393401F
:109800004FF0A042C2F80835704700BF060F0300B2
:1098100008B50020FFF7F0FF0120FFF7EDFF022061
:10982000FFF7EAFF0320BDE80840FFF7E5BF08B5F2
:109830000020FFF7D5FF0120FFF7D2FF0220FFF73E
:10984000CFFF0320BDE80840FFF7CABF074A4FF02B
:10985000A041105CD1F804350122824022EA0300C5
:109860001340C1F80805C1F80C357047060F030016
:10987000054A4FF0A043105CD3F8103523FA00F0EE
:10988000C04300F001007047020F03000D2809D00B
:109890000E2809D00F2809D010280CBF03204FF044
:1098A000FF3070470020704701207047022070474A
:1098B000014B185C704700BF020F0300C20708B5D8
:1098C00001460CD54FF0A0430322C3F84427C3F848
:1098D0004827C3F84C27C3F85027FFF799FF8B0799
:1098E0000AD54FF0A0430C22C3F83427C3F8382719
:1098F000C3F83C27C3F8402708BD000038B5074C23
:10990000051E04F1080318BF1C4623682BB11A6812
:1099100022605B6828469847F7E738BD5835002035
:1099200020B9054B01225A70FFF7E8BF012802D188
:10993000014A9070F8E770475035002020B9034B7A
:1099400001225A70FFF7DABF704700BF5035002080
:1099500038B50B4C237883B90A486360A360236150
:10996000E36000F0D3F8054606F03AFA08B900F0D3
:10997000D9F801232370284638BD8525FBE700BFB1
:10998000503500202199020037B50B4C00230DF112
:1099900007008DF80730FDF70DFFE368013BE3603A
:1099A000E56815B900F0D2F8A5709DF80700FDF73D
:1099B00025FF03B030BD00BF50350020012813B58E
:1099C00009D018B103281CD002B010BD0F4B0122E2
:1099D000C3F88020F8E70E4C00230DF107008DF846
:1099E0000730FDF7E7FE23780BB9FFF7B1FFE36817
:1099F0009DF807000133E3600123A370FDF7FEFE2D
:109A0000E2E700F08FF8FFF7BFFFDDE700E100E0DD
:109A1000503500201FB503788DF80030436801935E
:109A2000037A8DF80830C3680393054A054B6846EE
:109A300053F8213052F82110984705B05DF804FB27
:109A400064350020683500201FB503788DF800309C
:109A50004368019383688DF80830C3680393054A0F
:109A6000054B684653F8213052F82110984705B04D
:109A70005DF804FB6435002068350020F0B5194B13
:109A8000067891F81DE043F82620174B94460A69A2
:109A900043F82620154B03F806E00C4607460FCC8A
:109AA00089B06D460FC594E80F0085E80F00049655
:109AB000BEF1000F0AD0BCF1000F0D4A694608BF85
:109AC0000022381D00F07CFD09B0F0BDBCF1000F94
:109AD000084A694608BF002207F10C0000F072FB3B
:109AE000F2E700BF68350020643500206C350020A7
:109AF000159A0200499A020000F18040002382B0CA
:109B0000036003680193019B02B07047044A137914
:109B100023B9012110609180184670478520704755
:109B200070350020084B1A68D20706D4E02283F86B
:109B300000230122C3F880211A604FF080430122E4
:109B4000C3F81825704700BF00E100E0044B012274
:109B50001A604FF08042D2F81834DB03FBD4704710
:109B60000C000040124B1B6810B573B14FF48070AD
:109B7000FFF7C2FF4FF080430122C3F808230D4BCB
:109B8000587910B95A711B6898470B4B1B6873B111
:109B90004FF48270FFF7B0FF4FF080430222C3F80A
:109BA0000823044B01201B68BDE81040184710BD76
:109BB00000010040703500200401004000F18040A9
:109BC00000F5C040002382B0036003680193019B4D
:109BD00002B07047800000F1A040D0F8003723F4B5
:109BE0004033C0F80037D0F8003743EA0141C0F8ED
:109BF00000177047054B4FF0FF32072843F820202D
:109C000084BF1B1883F84820704700BF78350020B8
:109C100010B5184C94F8583053BB04F13003202190
:109C2000FF22013911F0FF0103F8012BF9D1C8B26D
:109C3000FFF7E0FF01310C29F9D1042200210E4881
:109C400006F077FB0D4BE02283F806234022C3F891
:109C500080214FF4BE701A60FFF7B0FF084B4FF041
:109C60000042C3F80423012384F85830002010BDBB
:109C70000820FCE778350020CC35002000E100E02A
:109C800000600040034B93F85800003018BF0120DB
:109C9000704700BF78350020F0B5374B1C1894F999
:109CA0003040002C1C4664DA8D78C5F34005002D49
:109CB0000BBF082300230C260826B34201D1042041
:109CC000F0BD54F8237001373FD1261844F8232003
:109CD00086F8303015B9E21882F848008A785507BE
:109CE00013D4D60733D5820002F1A042D2F8005730
:109CF00025F00205C2F80057204EC50800F00707FE
:109D00000122BA40775D3A4372558A780D7812F095
:109D1000020225D09B0003F1804303F5C0430202F9
:109D2000D3F8101521F4473121F44071C3F8101510
:109D30002D04D3F8101502F4F85205F440352A43E7
:109D40000A43C3F810250020BAE70133B5E74D7880
:109D500000F5E0724FF0A046AD0046F82250CBE788
:109D6000083B234493F8501041EA851583F850507E
:109D7000E9E70820A4E700BF78350020CC350020B3
:109D800038B5204C251895F93020072A18DD2244D3
:109D900092F848309B09032B0DD14FF0A043D3F824
:109DA0001035C34013F0010F0CBF02210321BDE8A1
:109DB0003840FFF70FBF012B14BF03210221F6E744
:109DC000D3B2072B1CD8930003F1804303F5C043A3
:109DD000D3F8100540F00100C3F8100502F140006F
:109DE000800080B2FFF7EAFE51B195F9303054F8A7
:109DF00023302BB1012303FA02F2034BC3F80423EF
:109E000038BD00BF78350020006000404FF0A0430F
:109E1000D3F8103523FA00F000F00100704700007D
:109E20002DE9F04F85B000245A4D01944FF4807213
:109E3000012102F1804303F5C04390B21B68012B5E
:109E400006D1D5F804330B4202D0FFF7B7FE0C431E
:109E50000432B2F5907F4FEA4101EAD14E4B1B68C4
:109E6000012B0AD14FF4BE70FFF7A8FE4FF0A043BC
:109E700044F00044D3F81035019314F0FF0F1AD0CA
:109E8000464F00250126344210D0AB0003F1804339
:109E900003F5C043D3F81005D3F8101557F8253053
:109EA00023B1C1F30141C0F3042098470135082DC7
:109EB0004FEA4606E7D1002C64DA00224FF0FF3368
:109EC000CDE90223354D01274FF0000A344E5446A8
:109ED0004FF0A04816F9012B531C46D0D2B222F005
:109EE000C0094FEAD90104A8084402F0070310F89A
:109EF00004CC07FA03F31CEA030F36D005EB090C78
:109F000092099CF930C055F82CB0BBF1000F0AD172
:109F1000032A2AD10DF1080E1EF801C04CEA030CE9
:109F20000EF801C001E0032AF4D009F5E07110F841
:109F30000C0C58F821101842C1F3014105D0022938
:109F400013D1032A0BD1114604E003290DD1032AB2
:109F500005D102214846FFF73DFE0134E4B2BBF1D2
:109F6000000F02D011464846D8470AF1010ABAF15B
:109F7000040FAFD134B14FF0A043019AD3F810359C
:109F8000934202D105B0BDE8F08F0193029B039389
:109F90009AE700BF006000407C61004078350020F7
:109FA000C8350020014B1B68184700BFD43500207E
:109FB0000E4B984237B50D4602D0002003B030BD9D
:109FC00000230DF107008DF80730FDF7F3FB084B78
:109FD0001C7914B901221D601A719DF80700FDF764
:109FE0000DFC002CE9D01120E8E700BF0020004064
:109FF000D4350020034B984201BF034B00221A6066
:10A000001A71704700200040D435002000234350CF
:10A0100082B043580193019B02B070470A4610B5C5
:10A020004FF48E71FFF7F2FF136A9168C95C136AEF
:10A0300001331362C0F81C1510BD8B690A4610B5B8
:10A040004FF4847123B9FFF7E1FFD0F8183510BD44
:10A05000FFF7DCFF536AD168D0F81805C854536A7B
:10A0600001335362F3E700001FB501238DF8003080
:10A07000044BCDE90110D3E900126846904705B0C2
:10A080005DF804FBDC35002030B54C4AD2F80433CF
:10A0900013F4007F85B015464FD0D2F82431002B41
:10A0A0004BD04FF492711046FFF7B0FF4FF401739D
:10A0B000C2F80833424B93F8291009B901215160C5
:10A0C0003E4902228DF80020D1F88024C1F8802476
:10A0D00003929A690292DA6801920022C3E9062289
:10A0E0006846D3E9001290473448D0F81C315BB180
:10A0F00033490A6A4B699A420A464BD291F8283092
:10A10000002B47D1FFF78AFF2C4AD2F8443193B194
:10A110004FF4A2711046FFF779FF294B93F82910ED
:10A1200009B1012111609A692AB100229A61586A25
:10A13000D968FFF799FF05B030BDD5F804335B0748
:10A14000D2D5D5F80831002BCED01D4C1B48214666
:10A15000FFF773FF636AA2699A422346C4D1E2699A
:10A16000E1684AB12369E3600023606AA261E361A8
:10A170006362FFF779FFB7E794F829200AB9012253
:10A180006A600E4A4FF40170C2F8080300229A6117
:10A19000586AEEE74FF48E710848FFF737FF5169B0
:10A1A0000029B1D00023029191688DF8003001910F
:10A1B00053616846D2E900139847A5E700200040A4
:10A1C000DC3500202DE9F8435A4B047991462C22C6
:10A1D00002FB0432064692F82A200D469846002AD1
:10A1E00040F0A38054490068FFF7E2FE07460028CC
:10A1F00040F09D8029683368481C0BD04FF0A04088
:10A2000001228A40C0F8082501F5E0724FF0030CE6
:10A2100040F822C06868421C1FBF00F5E0724FF092
:10A22000A04C4FF0000E4CF822E0AA6995F814C03B
:10A23000C3F824256A7DBCF1010F4CEA0202C3F881
:10A240006C25C3F81405C3F80C151DD1AA68511C60
:10A250001FBF02F5E0714FF0A0404FF0000C40F836
:10A2600021C0E968481C0BD04FF0A04C0120884069
:10A27000CCF8080501F5E0704FF0030E4CF820E033
:10A28000C3F80815C3F810252C23634308EB030219
:10A29000C2F804902A6948F80320B9F1000F31D0C0
:10A2A0004FF48E7130682D7FFFF7B0FE30684FF4A9
:10A2B000A271FFF7ABFE3268204BC2F80433120BD9
:10A2C00053B2002BA8BF03F160404FEA53134FEA8B
:10A2D0004511BABF1A4802F00F0500F561404FEA78
:10A2E0008303C9B203F16043B4BF415580F8001342
:10A2F00003F5614302F01F02012101FA02F2C3F8E3
:10A3000080211A6033680422C3F800252C2303FB44
:10A3100004830022C3E9062283F829205A6101221E
:10A3200083F82A203846BDE8F8830827FAE7112782
:10A33000F8E700BFDC35002089A0020080000200A1
:10A3400014ED00E0F8B5047900682D4D0023C0F845
:10A3500000352C2303FB04535B6873B1294BC0F811
:10A360000833020B53B201215B0902F01F0201FA0C
:10A3700002F22033244941F82320D0F80C65D0F8AC
:10A380001415D0F80835D0F810254FF0FF37BE422D
:10A39000C0F8147518BF06F5E076C0F80C75C0F863
:10A3A0000875C0F810751EBF4FF0A0474FF0020CA3
:10A3B00047F826C04E1C1FBF4FF0A04601F5E071C4
:10A3C000022746F82170511C1FBF4FF0A04102F533
:10A3D000E072022641F822605A1C1FBF03F5E073A9
:10A3E0004FF0A042022142F82310FFF703FE2C2376
:10A3F00003FB0454002384F82A306360F8BD00BFD7
:10A40000DC3500208402020000E100E02DE9F84381
:10A41000224F06794FF02C0909FB067480466569C6
:10A42000002D37D16261A16025624FF48E71006802
:10A4300084F82850FFF7EAFDD8F800000123836074
:10A440002146FFF7EBFD6368A1462BBBD8F800500F
:10A45000226A63699A4212D3D8F80030D3F81C21DB
:10A46000002AFBD00122DA6000202C2303FB0676B1
:10A4700000237361BDE8F88394F8283043B9D5F818
:10A480001C31002BF8D049462846FFF7C7FDDFE70F
:10A490000F20EAE71120EDE72846EBE7DC35002046
:10A4A0000023435082B043580193019B02B0704790
:10A4B0001FB501238DF80030054B8DF80800019180
:10A4C0006846D3E90012904705B05DF804FB00BF71
:10A4D000083600207FB5384AD2F82461002E49D0D2
:10A4E00010464FF49271FFF7DBFF02238DF8003026
:10A4F000D2F88034C2F880340393D2F83C358DF81A
:10A5000008302E4BDA6801920022C3E90622684621
:10A51000D3E900129047284AD2F8443173B14FF47E
:10A52000A2711046FFF7BCFF244B996931B100219D
:10A530009961D2F83C05D968FFF7BAFF1E4AD2F8F4
:10A540002031ABB14FF490711046FFF7A9FF1B4BC0
:10A55000596969B1D2F84C158DF808100022996834
:10A560008DF8002001915A616846D3E900129047A6
:10A5700004B070BDD2F81031002BCCD04FF48871EC
:10A580001046FFF78DFF0D4BD2F83C0599698842C4
:10A59000C1D1DC69D96864B1D2F8005225F0200538
:10A5A000C2F800521A699C61DA60DE61FFF780FF31
:10A5B000B1E79C61FAE700BF0020004008360020A8
:10A5C0002DE9F8435E4B06799146242202FB0632C0
:10A5D000044692F820200D469846002A40F0AB80B1
:10A5E00058490068FFF7E4FC0746002840F0A580C2
:10A5F00029682368481C0BD04FF0A04001228A40F4
:10A60000C0F8082501F5E0724FF0030C40F822C0B5
:10A610006868421C1FBF00F5E0724FF0A04C4FF07D
:10A62000000E4CF822E0AA6995F814C0C3F824255E
:10A630006A7DBCF1010F4CEA0202C3F86C25C3F835
:10A640000C15C3F814051DD1AA68511C1FBF02F5D3
:10A65000E0714FF0A0404FF0000C40F821C0E968D5
:10A66000481C0BD04FF0A04C01208840CCF80805C6
:10A6700001F5E0704FF0030E4CF820E0C3F8081528
:10A68000C3F810252423734308EB0302C2F8049097
:10A690002A6948F80320B9F1000F3BD04FF48871C4
:10A6A00020682D7FFFF7FCFE4FF490712068FFF7C4
:10A6B000F7FE4FF492712068FFF7F2FE20684FF426
:10A6C000A271FFF7EDFE22681F4BC2F80433120B94
:10A6D00053B2002BA8BF03F160404FEA53134FEA77
:10A6E0004511BABF194802F00F0500F561404FEA65
:10A6F0008303C9B203F16043B4BF415580F800132E
:10A7000003F5614302F01F02012101FA02F2C3F8CE
:10A7100080211A6023680822C3F80025242303FB44
:10A7200006830022C3E906225A61012283F8202011
:10A730003846BDE8F8830827FAE71127F8E700BF95
:10A7400008360020D5A402001003020014ED00E03A
:10A75000F8B5047900682D4D0023C0F80035242396
:10A7600003FB04535B6873B1294BC0F80833020B39
:10A7700053B201215B0902F01F0201FA02F22033F9
:10A78000244941F82320D0F80C65D0F81415D0F8EE
:10A790000835D0F810254FF0FF37BE42C0F80C75D1
:10A7A00018BF06F5E076C0F81475C0F80875C0F853
:10A7B00010751EBF4FF0A0474FF0020C47F826C09F
:10A7C0004E1C1FBF4FF0A04601F5E071022746F86E
:10A7D0002170511C1FBF4FF0A04102F5E07202260C
:10A7E00041F822605A1C1FBF03F5E0734FF0A042EE
:10A7F000022142F82310FFF7FDFB242303FB04543E
:10A80000002384F820306360F8BD00BF08360020C4
:10A810001003020000E100E001F06043B3F1005FCB
:10A820002DE9F041074632D11C4B0679242505FB62
:10A83000063598466C6964BB6A61A96000684FF48C
:10A840009071FFF72DFE4FF4AC713868FFF728FECA
:10A850003B686A69A968C3F84415C3F84825012212
:10A860009A606A68BAB9D3F82011D3F8582149B967
:10A87000002AF8D00F20242303FB068600237361EF
:10A88000BDE8F081002A14BF0F200020F3E710205C
:10A89000F6E71120F4E72046F2E700BF0836002073
:10A8A0001FB503788DF800308388ADF804308368D5
:10A8B0008DF80630C3688DF8073003690293436949
:10A8C0000393054A054B684653F8213052F821108E
:10A8D000984705B05DF804FB2C3600203436002084
:10A8E000024B4FF4807043F001031847300F030010
:10A8F0002DE9F04791460778324A42F82790324ACC
:10A9000042F827304B7B80460C4663B308684968A1
:10A9100082008B0002F1A04203F1A04340F20C65DB
:10A92000C2F800570126C3F800574FF0A04506FAB9
:10A9300000F006FA01F1C5F80805C5F8081540F25F
:10A940000D61C2F80017C3F80017FFF7C9FF4FF0F9
:10A95000000AD5F81025636822FA03F3DB070FD548
:10A96000BAF1000F1FD1B9F1000F3B46174A21463B
:10A9700008F1040008BF0022BDE8F04700F0D2B89B
:10A98000236806FA03F3C5F80C35FFF7A9FF23681F
:10A9900006FA03F3C5F808350AF1010AFFF7A0FF2C
:10A9A000BAF1090FD5D1636801254FF0A04605FA29
:10A9B00003F3C6F80C35FFF793FF63689D40C6F8B4
:10A9C0000855D0E7343600202C360020A1A802001C
:10A9D0000023435082B043580193019B02B070475B
:10A9E000F0B54C4A4C4CD2F8243187B01546A3B18F
:10A9F0004FF492711046FFF7EBFFD2F8043163B9C0
:10AA0000A368C2F808330223A360A368C2F8043322
:10AA100001231362536107B0F0BDD5F80431002B58
:10AA200049D03E4F3B484FF48271FFF7D1FF0FCF23
:10AA300001AE0FC63B68336094F82E307BB1237BA8
:10AA4000012B0CBFD5F83C25D5F84C250292022BE2
:10AA5000304B0CBFD3F83C35D3F84C3503934FF44F
:10AA6000B0712C48FFF7B4FF4FF4AE712948FFF7DF
:10AA7000AFFF94F8303013B194F82E303BB1254B32
:10AA80000022C3F80022A260254AC3F80823214A05
:10AA9000D2F8C434C2F8C4349A0736D501238DF8ED
:10AAA000003094F830300BB984F82F30D4E90031FD
:10AAB00068469847AFE74FF4A4711648FFF788FF40
:10AAC000237B83B9154F0FCF01AE0FC63B683360B0
:10AAD00094F83030002BDAD1C5F80032A360104B67
:10AAE000C5F80833D3E74FF40073C5F8003240F2DD
:10AAF0000223A36003F1CE73C5F80833A368C5F839
:10AB000004330123AB602B6285E713F0040318BF05
:10AB10000223C4E7003000403C36002048360020C5
:10AB200002029C012DE9F84F0579364C4FF03408AC
:10AB300008FB05F804EB08079B4697F82D30814683
:10AB40000E469246002B59D12F490068FFF730FA84
:10AB5000002855D13168737B87F8323001F5E072F7
:10AB60004FF0A043B860C7F804B087F82F0087F80B
:10AB7000300040F20C6744F808A043F82270726875
:10AB800002F5E07C43F82C70D9F80030C3F80815C2
:10AB9000C3F80C25B268C3F82425BAF1000F25D0FC
:10ABA0001A0B53B2317B002BA8BF03F16046D2B21F
:10ABB0004FEA5313B8BF02F00F074FEA4111B4BF79
:10ABC000124E06F561464FEA8303C9B203F16043B2
:10ABD000B4BFF15586F8001303F5614302F01F027C
:10ABE000012101FA02F2C3F880211A60342303FB29
:10ABF0000544012384F82D30BDE8F88F0820FBE7D9
:10AC00001120F9E73C360020E1A9020014ED00E034
:10AC1000026803790621C2F80015044A342101FBB9
:10AC20000323022283F82D20704700BF3C3600200A
:10AC30002DE9F843CB6803F06043B3F1005F0D46A4
:10AC4000904603D010221046BDE8F8830779944E51
:10AC50000468944BC4F808334FF0340C0CFB076CB9
:10AC60009CF82F302BB1DCF80830C4F804331122E3
:10AC7000E9E712F0140F0CBF012300238CF82F30EA
:10AC80008946B9E80F000CF10C0EAEE80F00D9F8B8
:10AC90000030CEF80030C8F300138CF830306B78F9
:10ACA000C4F888354FF482712046FFF791FE4FF4C7
:10ACB0009271FFF78DFE18F0010318BF0123C4F84D
:10ACC000503518F0020318BF0123C4F840352B7823
:10ACD000032B00F2C380DFE803F083AB67022B692C
:10ACE00003F06043B3F1005FACD14FF48073EA68C6
:10ACF000C4F800326B68C4F844254FF4A871C4F856
:10AD00004835FFF765FE4FF4B071FFF761FE4FF471
:10AD1000A471FFF75DFE01232362A360D4F85031D4
:10AD2000002BFBD04FF4A8712046FFF751FEAB6813
:10AD30002A69C4F84425C4F848355B4A342303FB28
:10AD400007639A604FF482730821002218F0080FFD
:10AD500004D1287803281CBF012060503421794396
:10AD60007018715800297ED10125234419680029E3
:10AD700000F086803421D4F8C434C4F8C43401FB14
:10AD80000766002186F82F10002B3FF45CAF13F00C
:10AD9000020F48F2012208BF032213F0040F48F209
:10ADA000022318BF1A464EE76B68EA68C4F84425C8
:10ADB000C4F848352B6903F06042B2F1005F7FF4BC
:10ADC00041AFAA68C4F834354FF48453C4F8382529
:10ADD000C4F80032342303FB076340F20222B0E7D9
:10ADE0006B68EA68C4F8442518F0200FC4F84835A9
:10ADF0004FF0340310D003FB07634FF48072C4F8A4
:10AE00000022294A9A604FF4A471FFF7E1FD4FF444
:10AE1000A4730122226297E74FF4007203FB0763D9
:10AE2000C4F8002240F202229A604FF48273F0E7E5
:10AE30006B68EA68C4F83425C4F838354FF4805399
:10AE4000C4F80032342303FB076340F202229A6005
:10AE50000123236200214FF4827376E74FF482735B
:10AE60000821072272E718F0040F1CBF4FF400738B
:10AE70008360342303FB0766B368C4F80433E2E657
:10AE8000D4F8241100293FF471AF4FF49271204699
:10AE9000FFF79EFD25624FF48273656165E700BF91
:10AEA0003C36002002029C0100020400F0B587B08D
:10AEB00004460F4615460021142201A81E4605F03F
:10AEC00038FA9DF830308DF80570002B14BF202221
:10AED000002201A9204602960495FFF7A9FE07B0BB
:10AEE000F0BDF0B587B004460F461546002112228A
:10AEF0000DF106001E4605F01CFA0123002201A9EF
:10AF000020468DF804308DF8057002960495FFF701
:10AF10008FFE07B0F0BD0220FEF798BC2DE9F04788
:10AF200081460D46FEF7B2FC0328044604D8012DE5
:10AF300004D025B3022D2FD0BDE8F087194D47006E
:10AF40003A18A918AE5C4A7852B1DFF86880164802
:10AF500042464FF40041FCF7D7FB08B988F800904F
:10AF60003B192B449A78114B1A55002EE4D0104B04
:10AF70001B68002BE0D03046BDE8F04718470A4870
:10AF8000FCF708FC074B04EB440213449E78074B84
:10AF90001B5DB342D0D1E8E7024B00EB40041C44F8
:10AFA0006678E2E7D436002094360020ED360020A3
:10AFB000E83600207036002002210078FFF7AEBF8F
:10AFC00008B5094B1B7853B10020FEF715FC012092
:10AFD000FEF712FC0320BDE80840FEF70DBCBDE8FB
:10AFE0000840FEF715BC00BF71360020F8B5794C5B
:10AFF000237805461BB100232370FFF7E1FF172DCF
:10B0000000F28480DFE805F00C13133F5061727C7E
:10B0100084898489919696969696C0C5CDD5E0E0B0
:10B02000FFF7CEFF6C4B00241C702046F8BD0020BB
:10B03000FEF7C8FBF8B10020FEF7DEFB022D0CBFC7
:10B040004FF4E1614FF47A61634B1D704FF400409F
:10B050004FF4FA740025E0FB01454FF47A720023A7
:10B060002046294605F03CF8002201465B48BDE831
:10B07000F840FCF749BBFEF7B3FB022D0CBFC8211B
:10B080004FF4C871E0E70020FEF79CFB40B10020C0
:10B09000FEF7B2FB4FF448714F4B03221A70D5E70D
:10B0A000FEF79EFBC821F7E70020FEF78BFB38B1C7
:10B0B0000020FEF7A1FB4FF47A61474B0422EDE735
:10B0C000FEF78EFB4FF4C871F7E70020FEF77AFB1E
:10B0D00048B10020FEF790FB3F4B05221A7041F665
:10B0E0009A110022C2E7FEF77BFBF5E70020FEF78E
:10B0F000ADFB394B06221A70002240F6CD41B5E770
:10B100000020FEF76DFB344B07221A7000248CE7F9
:10B1100001202070FEF79AFBEEE701202070FEF779
:10B1200095FB00224FF48041A0E7FEF780FB2A4BFD
:10B130000C22EAE72A482B4EFCF72CFBD5F111052F
:10B1400004461CD0D8B9012D13D0C8235D434FF459
:10B1500000474FF4FA7000214FF47A720023C7FBC6
:10B16000050104F0BDFF224601461D48FCF7CCFA5C
:10B1700004460220FEF734FB0123337055E702201A
:10B18000FEF73AFB0023F8E7FFF71AFF124B1222F3
:10B19000BBE7FFF715FF0020FEF722FB0E4B132243
:10B1A000B3E7FFF70DFF0120FEF71AFB0A4B14224D
:10B1B000ABE7FFF705FF0020FEF712FB0120FEF7CB
:10B1C0000FFB054B1522A0E7FEF731FB024B1D706C
:10B1D0009CE700BFE4360020EC360020B4360020A7
:10B1E0007436002071360020044B1B68DB0703D542
:10B1F000034B1878FFF7FABE704700BFE036002017
:10B20000EC360020032801D8FEF732BB002070473F
:10B21000044B1B6813F0010301D0FFF7E7BE18468B
:10B22000704700BFE036002038B51C4B18601C4B3F
:10B2300010F00204054619601AD01A4B1A480E2263
:10B240001A700F22DA7010229A7111225A72042198
:10B2500040F26662FBF73CFE044648B9FBF78CFE01
:10B26000044628B90146114A1148FCF73BFA044646
:10B27000EB0711D50120FEF721FB6CB921460D4AE1
:10B280000D48FCF72FFA044630B90C4A0C4801214E
:10B29000BDE83840FCF726BA204638BDE03600202D
:10B2A000E8360020D43600203C0F0300B9AF02007E
:10B2B000600F0300E9B10200640F030017AF020042
:10B2C0005C0F0300032813D8012A0BD1012908D1F0
:10B2D00000F10E02D2B200EB40000C4B1A540020D9
:10B2E000704700220129F6D04BB24BB1022901D0A0
:10B2F00007207047054B00EB400018444270EEE712
:10B30000024900EB400008448270E8E7D436002090
:10B31000032808B512D8FEF7CBFA800000F1A04050
:10B32000D0F8003723F44033C0F80037D0F80037A6
:10B3300043F44033C0F80037002008BD0620FCE786
:10B3400008B5012202210020FFF7BCFF08B1072841
:10B3500008D1072202210120FFF7B4FF10B107280E
:10B3600008BF002008BD00000388102B10B502D0D4
:10B37000112B1ED010BD1A4C2168B1B9012208460C
:10B38000FFF7A0FF08B1072824D1072202210120DE
:10B39000FFF798FF08B107281CD1042202210020E2
:10B3A000FFF790FF08B1072814D123680133236009
:10B3B000E0E70B4A1368013B1360002BDAD1FFF77B
:10B3C000BFFF0028D6D0074B1B68002BD2D0BDE8AA
:10B3D00010401847034B1B68002BE6D09847E4E762
:10B3E000F8360020F436002008B50020FFF790FF63
:10B3F00008B1062806D10120FFF78AFF10B1062800
:10B4000008BF002008BD00000D4B10B518600C46A9
:10B4100029B10120FFF7F6FE40B102232370094B4A
:10B420001B6853B9BDE81040FFF78ABFFFF7EAFE7B
:10B4300008B10B23F2E72070F1E7002010BD00BF38
:10B44000F4360020F836002076DF70477ADF704748
:10B450007CDF70478FDF704733DF70477047FBF743
:10B46000A1BD000038B5124800F0F6FD08B1FBF7A9
:10B4700099FD0F4C0025221DA11C204600F0AEFDB9
:10B4800008B1FBF78FFD0135202D04F10604F2D140
:10B490000749084800F06AFC08B1FBF783FD00F09B
:10B4A000A7FE18B1BDE83840FBF77CBD38BD00BF32
:10B4B000803800205439002008B500F011FF18B181
:10B4C000BDE80840FBF76EBD08BD00000021024A40
:10B4D0000846FBF72FBE00BF65B4020008B5002088
:10B4E000FFF796FE08B1FBF75DFDFFF77DFF08B1A2
:10B4F000FBF758FDFFF7B0FF18B1BDE80840FBF7B8
:10B5000051BD08BD0388212B13B5044631D005D8A1
:10B51000102B15D0112B0AD002B010BD3B2B38D008
:10B52000562BF9D1214B22491888000435E01F4BD6
:10B5300020491888000440F00300FBF781FAEBE78C
:10B540001A4B1D491888000440F00300FBF778FAF5
:10B550000720FFF75DFE08B1FBF724FD174BA1881C
:10B560001748198002F066FD0028D5D0FBF71AFDB8
:10B57000D2E70E4B13491888000440F00400FBF793
:10B580005FFA002301A9A088ADF80430FFF762FF3D
:10B59000EAE7064B0C491888000440F00400FBF76A
:10B5A0004FFA1321A088FFF74FFFDDE7B02B0020F3
:10B5B000AA0F0300680F0300760F03004C2C002035
:10B5C00090390020810F0300950F030008B5037820
:10B5D0004BB9054B3B211888FFF736FF18B1BDE882
:10B5E0000840FBF7DFBC08BD4C2C0020072808B53D
:10B5F00013D00A280DD0042819D10D4B1321188817
:10B60000FFF722FF30F0080311D0BDE80840FBF738
:10B61000C9BCBDE80840FFF761BF054B1A884FF66B
:10B62000FF739A4203D1034801F081FBEAE708BDAA
:10B630004C2C0020C837002008B588B1032813D14E
:10B640000A4B0B491888000440F00300FBF7F8F997
:10B650000220FFF7DDFD38B1BDE80840FBF7A2BCD2
:10B66000BDE80840FFF73ABF08BD00BFB02B00207F
:10B670000810030008B50B78012B0BD013B1022B77
:10B680000FD008BD00F0F4FD0028FAD0BDE8084056
:10B69000FBF788BC0021054A0846BDE80840FBF7D7
:10B6A00049BD486800F0A6FBEEE700BFB9B4020050
:10B6B00008B50321044801F0DBF918B1BDE80840E2
:10B6C000FBF770BC08BD00BFC837002030B5037859
:10B6D00085B004460D2B10D8DFE803F0070F110FDB
:10B6E000220F2A390F350F3932391A4B1A49188867
:10B6F000000440F00300FBF7A3F905B030BD154B83
:10B7000040881D8801F00EFD2D04237A009345F03A
:10B7100003050246638811492846FBF7A8F9ECE7C0
:10B72000002303A940888DF80C3003F059FAE4E7B0
:10B73000FCF736FF30F00803DFD0FBF733FCDCE723
:10B74000FFF7B6FFD9E700690028D6D0F5E7806893
:10B75000FAE700BFB02B00201A10030043100300CB
:10B760004FF0A042064B1870D2F80435D94301F4CB
:10B77000005103F40053C2F80815C2F80C357047A5
:10B78000C4370020FBF70EBC30B5ADB000F0FEFBB7
:10B79000FEF73EFA08B1FBF705FC40F20133ADF8C5
:10B7A0000430A54A022301A919208DF80630FEF7BE
:10B7B00073FA08B1FBF7F6FB01211920FEF7E0FA56
:10B7C0004FF400410020FAF775FF08B1FBF7EAFBE0
:10B7D000FAF794FEFBF756FF08B1FBF7E3FB974A35
:10B7E00097480121FBF77EFF08B1FBF7DBFB95498A
:10B7F0000320FFF719FD08B1FBF7D4FB01A90020D6
:10B80000FFF702FE08B1FBF7CDFB9DF80450FDF7F2
:10B81000F7FD08B1FBF7C6FB04F05CFA08B1FBF7D3
:10B82000C1FB002301A90120019304F029FB08B109
:10B83000FBF7B8FB01A804F0E9FB08B1FBF7B2FB8A
:10B840004FF0A0430322C3F834274FF40052C3F84B
:10B850000C2501217C4A022004F0AEF908B1FBF767
:10B86000A1FB112379488DF8003004F0B7FD77492A
:10B8700082B26846FFF7ECFD08B1FBF793FB0021AD
:10B88000082201A804F055FD71494FF0C87301A8C2
:10B89000CDE90113FFF7DAFD08B1FBF783FB0021C7
:10B8A0006C4802F029FA08B1FBF77CFBF7216948E4
:10B8B00002F036FA08B1FBF775FB674B6748009357
:10B8C000694602F0A5FB08B1FBF76CFB644B0193E2
:10B8D00040F20363ADF8083001A9002361488DF8F8
:10B8E0000A3000F0E5F808B1FBF75CFBAC22002160
:10B8F00001A804F01EFD02238DF8043040F201631C
:10B90000594AADF806300123ADF8143006928DF88F
:10B9100080304FF4967244F25063CDE9232301A99D
:10B92000524B53482A9301F031F808B1FBF73AFB28
:10B9300001214F4801F027F81C22002101A804F042
:10B94000F8FC00234FF42032CDE90132ADF812307B
:10B950004FF470228DF81430464B03920693032265
:10B96000454B8DF8102001A8079301F0FDFA08B1AE
:10B97000FBF718FB03F0E0F808B1FBF713FB052217
:10B98000002101A804F0D5FC019B03F07C423B4B55
:10B99000134301939DF8083023F0030343F003039E
:10B9A00001A88DF8083003F011F908B1FBF7FAFA95
:10B9B000334803F0F3F808B1FBF7F4FA314C32499D
:10B9C0002088000440F00300FBF73AF800221146FB
:10B9D000012000F08FFB08B1FBF7E4FA00F021FA38
:10B9E00008B1FBF7DFFA20882849000440F0030083
:10B9F000FBF726F80A21264A0846FBF777FB08B131
:10BA0000FBF7D0FA022D14D120882249000440F01F
:10BA10000300FBF715F803F0F1F808B1FBF7C2FAE1
:10BA2000FBF7EEFBFAF7ACFE0028F9D1FDF7FEFCC0
:10BA3000F6E7FFF73DFEF3E7CDB402005DB4020088
:10BA4000C00F0300EDB5020061B70200C40F030090
:10BA500010001800403900205FB402009039002027
:10BA600075B6020054390020482C002039B6020077
:10BA7000C8370020CDB5020085B70200310710039A
:10BA8000CDB60200B02B0020CF0F0300E10F030062
:10BA9000FC360020FB0F0300A8DF7047AADF7047C9
:10BAA000ACDF7047AEDF7047B0DF704762DF7047D2
:10BAB0002DE9F047884696B00546002800F0C4807E
:10BAC000002900F0C1800B6803604FF6FF73C3824A
